:020000040800F2
:1000000000000220A50500082503000833030008AE
:1000100039030008770300087D0300080000000092
:100020000000000000000000000000008303000842
:1000300091030008000000009F030008AD030008C2
:10004000F5050008F5050008F5050008F5050008A8
:10005000F5050008F5050008F5050008F505000898
:10006000F5050008F5050008F5050008F505000888
:100070005B030008F505000869030008F5050008A2
:10008000F5050008F5050008F5050008F505000868
:10009000F5050008F5050008F5050008F505000858
:1000A000F5050008F5050008F5050008F505000848
:1000B000F5050008F5050008F5050008F505000838
:1000C000F5050008F5050008F5050008F505000828
:1000D000F50500083F030008F50500084D0300087A
:1000E000F5050008F5050008F5050008F505000808
:1000F000F5050008F5050008F5050008F5050008F8
:10010000F5050008F5050008F5050008F5050008E7
:10011000F5050008F5050008F5050008F5050008D7
:10012000F5050008F5050008F5050008F5050008C7
:10013000F5050008F5050008F5050008F5050008B7
:10014000F5050008F5050008F5050008F5050008A7
:10015000F5050008F5050008F5050008F505000897
:10016000F5050008F5050008F5050008F505000887
:10017000F5050008F5050008F5050008F505000877
:08018000F5050008F505000873
:1001880010B5054C237833B9044B13B10448AFF3C9
:1001980000800123237010BD000000200000000033
:1001A8004006000808B5034B1BB103490348AFF3E9
:1001B800008008BD00000000040000204006000880
:1001C80080B500AF144A144BD3F8883043F4700359
:1001D800C2F88830114A114B1B6843F001031360C1
:1001E8000E4B00229A600D4A0C4B1B6823F0847357
:1001F80023F480331360094B094A5A60074A074BB6
:100208001B6823F480231360044B0022DA6000F09B
:1002180009F800BF80BD00BF00ED00E000380240D3
:100228001030002480B483B000AF00237B6000232B
:100238003B60364A354B1B6843F480331360334BBD
:100248001B6803F400333B607B6801337B603B68C9
:10025800002B03D17B68B3F5A06FF0D12B4B1B6843
:1002680003F40033002B02D001233B6001E000239C
:100278003B603B68012B42D1244A244B1B6C43F062
:1002880080531364224A224B1B6843F44043136093
:100298001E4A1E4B9B6893601C4A1C4B9B6843F488
:1002A80000439360194A194B9B6843F4A053936029
:1002B800164B184A5A60154A144B1B6843F0807352
:1002C800136000BF114B1B6803F00073002BF9D0BB
:1002D800114B40F205721A600C4A0C4B9B6823F0D4
:1002E80003039360094A094B9B6843F00203936038
:1002F80000BF064B9B6803F00C03082BF9D100BF25
:100308000C37BD465DF8047B704700BF00380240DB
:100318000070004008544007003C024080B400AF21
:1003280000BFBD465DF8047B704780B400AFFEE7B0
:1003380080B400AFFEE780B400AF00BFBD465DF8F3
:10034800047B704780B400AF00BFBD465DF8047BF6
:10035800704780B400AF00BFBD465DF8047B7047AE
:1003680080B400AF00BFBD465DF8047B704780B421
:1003780000AFFEE780B400AFFEE780B400AF00BF77
:10038800BD465DF8047B704780B400AF00BFBD4632
:100398005DF8047B704780B400AF00BFBD465DF8D0
:1003A800047B704780B400AF00BFBD465DF8047B96
:1003B800704780B483B000AF786000BF7B685A1E76
:1003C8007A60002BFAD100BF0C37BD465DF8047B7C
:1003D8007047000080B582B000AF0121082000F00E
:1003E8001DF84FF400533B6001233B710023BB71A0
:1003F8000023FB7100237B713B461946064800F039
:100408002DF84FF40051044800F0B6F86FF07F4023
:10041800FFF7CFFFF5E700BF000C024080B483B0C0
:1004280000AF78600B46FB70FB78002B06D00A49BA
:10043800094B1A6B7B6813430B6306E00649064BAE
:100448001A6B7B68DB4313400B6300BF0C37BD4658
:100458005DF8047B704700BF0038024080B487B065
:1004680000AF7860396000237B6100233B61002383
:10047800FB6000237B6176E001227B6902FA03F3CB
:100488003B613B681A683B691340FB60FA683B694B
:100498009A4265D17B681A687B695B00032101FA7F
:1004A80003F3DB431A407B681A607B681A683B6871
:1004B8001B7919467B695B0001FA03F31A437B68D1
:1004C8001A603B681B79012B03D03B681B79022B10
:1004D8002ED17B689A687B695B00032101FA03F3DC
:1004E800DB431A407B689A607B689A683B685B7953
:1004F80019467B695B0001FA03F31A437B689A602B
:100508007B685A687B699BB2194601238B40DB43A1
:100518001A407B685A607B685B683A689279114632
:100528007A6992B201FA02F292B21A437B685A606F
:100538007B68DA687B699BB25B00032101FA03F3ED
:10054800DB431A407B68DA607B68DA683B68DB79F2
:1005580019467B695B0001FA03F31A437B68DA608A
:100568007B6901337B617B690F2B85D900BF1C3701
:10057800BD465DF8047B704780B483B000AF7860F7
:100588000B467B807B685A697B885A407B685A6136
:1005980000BF0C37BD465DF8047B7047DFF834D0E8
:1005A800002103E00C4B5B58435004310B480C4BC3
:1005B80042189A42F6D30B4A02E0002342F8043B61
:1005C800094B9A42F9D3FFF7FBFD00F011F8FFF74A
:1005D80001FF7047000002206006000800000020AC
:1005E80000000020000000201C000020FEE70000A2
:1005F80070B50D4E0D4CA41BA4100025A54209D1C1
:100608000B4E0C4C00F018F8A41BA4100025A542B2
:1006180005D170BD56F8253098470135EEE756F8F4
:10062800253098470135F2E75806000858060008B3
:10063800580600085C060008F8B500BFF8BC08BCFE
:100648009E467047F8B500BFF8BC08BC9E46704788
:04065800AD010008E8
:04065C008901000808
:04000005080005A545
:00000001FF
